{
  "_format": "hh-sol-artifact-1",
  "contractName": "MultiSig",
  "sourceName": "contracts/MultiSig.sol",
  "abi": [
    {
      "inputs": [
        {
          "internalType": "address[]",
          "name": "_owners",
          "type": "address[]"
        },
        {
          "internalType": "uint256",
          "name": "_required",
          "type": "uint256"
        }
      ],
      "stateMutability": "nonpayable",
      "type": "constructor"
    },
    {
      "anonymous": false,
      "inputs": [
        {
          "indexed": true,
          "internalType": "address",
          "name": "owner",
          "type": "address"
        },
        {
          "indexed": true,
          "internalType": "uint256",
          "name": "txId",
          "type": "uint256"
        }
      ],
      "name": "Approve",
      "type": "event"
    },
    {
      "anonymous": false,
      "inputs": [
        {
          "indexed": true,
          "internalType": "address",
          "name": "sender",
          "type": "address"
        },
        {
          "indexed": false,
          "internalType": "uint256",
          "name": "amount",
          "type": "uint256"
        }
      ],
      "name": "Deposit",
      "type": "event"
    },
    {
      "anonymous": false,
      "inputs": [
        {
          "indexed": true,
          "internalType": "uint256",
          "name": "txId",
          "type": "uint256"
        }
      ],
      "name": "Execute",
      "type": "event"
    },
    {
      "anonymous": false,
      "inputs": [
        {
          "indexed": true,
          "internalType": "address",
          "name": "owner",
          "type": "address"
        },
        {
          "indexed": true,
          "internalType": "uint256",
          "name": "txId",
          "type": "uint256"
        }
      ],
      "name": "Revoke",
      "type": "event"
    },
    {
      "anonymous": false,
      "inputs": [
        {
          "indexed": true,
          "internalType": "uint256",
          "name": "txId",
          "type": "uint256"
        }
      ],
      "name": "Submit",
      "type": "event"
    },
    {
      "inputs": [
        {
          "internalType": "uint256",
          "name": "_txId",
          "type": "uint256"
        }
      ],
      "name": "approve",
      "outputs": [],
      "stateMutability": "nonpayable",
      "type": "function"
    },
    {
      "inputs": [
        {
          "internalType": "uint256",
          "name": "",
          "type": "uint256"
        },
        {
          "internalType": "address",
          "name": "",
          "type": "address"
        }
      ],
      "name": "approved",
      "outputs": [
        {
          "internalType": "bool",
          "name": "",
          "type": "bool"
        }
      ],
      "stateMutability": "view",
      "type": "function"
    },
    {
      "inputs": [
        {
          "internalType": "uint256",
          "name": "_txId",
          "type": "uint256"
        }
      ],
      "name": "execute",
      "outputs": [],
      "stateMutability": "nonpayable",
      "type": "function"
    },
    {
      "inputs": [
        {
          "internalType": "address",
          "name": "",
          "type": "address"
        }
      ],
      "name": "isOwner",
      "outputs": [
        {
          "internalType": "bool",
          "name": "",
          "type": "bool"
        }
      ],
      "stateMutability": "view",
      "type": "function"
    },
    {
      "inputs": [
        {
          "internalType": "uint256",
          "name": "",
          "type": "uint256"
        }
      ],
      "name": "owners",
      "outputs": [
        {
          "internalType": "address",
          "name": "",
          "type": "address"
        }
      ],
      "stateMutability": "view",
      "type": "function"
    },
    {
      "inputs": [],
      "name": "required",
      "outputs": [
        {
          "internalType": "uint256",
          "name": "",
          "type": "uint256"
        }
      ],
      "stateMutability": "view",
      "type": "function"
    },
    {
      "inputs": [
        {
          "internalType": "uint256",
          "name": "_txId",
          "type": "uint256"
        }
      ],
      "name": "revoke",
      "outputs": [],
      "stateMutability": "nonpayable",
      "type": "function"
    },
    {
      "inputs": [
        {
          "internalType": "address",
          "name": "_to",
          "type": "address"
        },
        {
          "internalType": "uint256",
          "name": "_value",
          "type": "uint256"
        },
        {
          "internalType": "bytes",
          "name": "_data",
          "type": "bytes"
        }
      ],
      "name": "submit",
      "outputs": [],
      "stateMutability": "nonpayable",
      "type": "function"
    },
    {
      "inputs": [
        {
          "internalType": "uint256",
          "name": "",
          "type": "uint256"
        }
      ],
      "name": "transactions",
      "outputs": [
        {
          "internalType": "address",
          "name": "to",
          "type": "address"
        },
        {
          "internalType": "uint256",
          "name": "value",
          "type": "uint256"
        },
        {
          "internalType": "bytes",
          "name": "data",
          "type": "bytes"
        },
        {
          "internalType": "bool",
          "name": "executed",
          "type": "bool"
        }
      ],
      "stateMutability": "view",
      "type": "function"
    },
    {
      "stateMutability": "payable",
      "type": "receive"
    }
  ],
  "bytecode": "0x60806040523480156200001157600080fd5b506040516200207c3803806200207c8339818101604052810190620000379190620003c1565b60008251116200007e576040517f08c379a00000000000000000000000000000000000000000000000000000000081526004016200007590620004c3565b60405180910390fd5b60008111801562000090575081518111155b620000d2576040517f08c379a0000000000000000000000000000000000000000000000000000000008152600401620000c99062000529565b60405180910390fd5b60005b8251811015620002d5576000838281518110620000f757620000f6620006a5565b5b60200260200101519050600073ffffffffffffffffffffffffffffffffffffffff168173ffffffffffffffffffffffffffffffffffffffff16141562000174576040517f08c379a00000000000000000000000000000000000000000000000000000000081526004016200016b9062000507565b60405180910390fd5b600160008273ffffffffffffffffffffffffffffffffffffffff1673ffffffffffffffffffffffffffffffffffffffff16815260200190815260200160002060009054906101000a900460ff161562000204576040517f08c379a0000000000000000000000000000000000000000000000000000000008152600401620001fb90620004e5565b60405180910390fd5b60018060008373ffffffffffffffffffffffffffffffffffffffff1673ffffffffffffffffffffffffffffffffffffffff16815260200190815260200160002060006101000a81548160ff0219169083151502179055506000819080600181540180825580915050600190039060005260206000200160009091909190916101000a81548173ffffffffffffffffffffffffffffffffffffffff021916908373ffffffffffffffffffffffffffffffffffffffff160217905550508080620002cc9062000628565b915050620000d5565b5080600281905550505062000826565b6000620002fc620002f68462000574565b6200054b565b9050808382526020820190508285602086028201111562000322576200032162000708565b5b60005b858110156200035657816200033b888262000360565b84526020840193506020830192505060018101905062000325565b5050509392505050565b6000815190506200037181620007f2565b92915050565b600082601f8301126200038f576200038e62000703565b5b8151620003a1848260208601620002e5565b91505092915050565b600081519050620003bb816200080c565b92915050565b60008060408385031215620003db57620003da62000712565b5b600083015167ffffffffffffffff811115620003fc57620003fb6200070d565b5b6200040a8582860162000377565b92505060206200041d85828601620003aa565b9150509250929050565b600062000436601083620005a3565b9150620004438262000728565b602082019050919050565b60006200045d601483620005a3565b91506200046a8262000751565b602082019050919050565b600062000484600e83620005a3565b915062000491826200077a565b602082019050919050565b6000620004ab602283620005a3565b9150620004b882620007a3565b604082019050919050565b60006020820190508181036000830152620004de8162000427565b9050919050565b6000602082019050818103600083015262000500816200044e565b9050919050565b60006020820190508181036000830152620005228162000475565b9050919050565b6000602082019050818103600083015262000544816200049c565b9050919050565b6000620005576200056a565b9050620005658282620005f2565b919050565b6000604051905090565b600067ffffffffffffffff821115620005925762000591620006d4565b5b602082029050602081019050919050565b600082825260208201905092915050565b6000620005c182620005c8565b9050919050565b600073ffffffffffffffffffffffffffffffffffffffff82169050919050565b6000819050919050565b620005fd8262000717565b810181811067ffffffffffffffff821117156200061f576200061e620006d4565b5b80604052505050565b60006200063582620005e8565b91507fffffffffffffffffffffffffffffffffffffffffffffffffffffffffffffffff8214156200066b576200066a62000676565b5b600182019050919050565b7f4e487b7100000000000000000000000000000000000000000000000000000000600052601160045260246000fd5b7f4e487b7100000000000000000000000000000000000000000000000000000000600052603260045260246000fd5b7f4e487b7100000000000000000000000000000000000000000000000000000000600052604160045260246000fd5b600080fd5b600080fd5b600080fd5b600080fd5b6000601f19601f8301169050919050565b7f4f776e6572732072657175697265642e00000000000000000000000000000000600082015250565b7f4f776e6572206973206e6f7420756e697175652e000000000000000000000000600082015250565b7f496e76616c6964206f776e65722e000000000000000000000000000000000000600082015250565b7f496e76616c6964207265717569726564206e756d626572206f66206f776e657260008201527f732e000000000000000000000000000000000000000000000000000000000000602082015250565b620007fd81620005b4565b81146200080957600080fd5b50565b6200081781620005e8565b81146200082357600080fd5b50565b61184680620008366000396000f3fe60806040526004361061008a5760003560e01c80638253951a116100595780638253951a146101b05780639ace38c2146101ed578063b759f9541461022d578063dc8452cd14610256578063fe0d94c114610281576100df565b8063025e7c27146100e457806314de327f1461012157806320c5429b1461014a5780632f54bf6e14610173576100df565b366100df573373ffffffffffffffffffffffffffffffffffffffff167fe1fffcc4923d04b559f4d29a8bfc6cda04eb5b0d3c460751c2402c5c5cc9109c346040516100d59190611424565b60405180910390a2005b600080fd5b3480156100f057600080fd5b5061010b60048036038101906101069190611064565b6102aa565b60405161011891906112c2565b60405180910390f35b34801561012d57600080fd5b5061014860048036038101906101439190610ff0565b6102e9565b005b34801561015657600080fd5b50610171600480360381019061016c9190611064565b6104f2565b005b34801561017f57600080fd5b5061019a60048036038101906101959190610fc3565b610789565b6040516101a79190611329565b60405180910390f35b3480156101bc57600080fd5b506101d760048036038101906101d29190611091565b6107a9565b6040516101e49190611329565b60405180910390f35b3480156101f957600080fd5b50610214600480360381019061020f9190611064565b6107d8565b60405161022494939291906112dd565b60405180910390f35b34801561023957600080fd5b50610254600480360381019061024f9190611064565b6108cd565b005b34801561026257600080fd5b5061026b610b67565b6040516102789190611424565b60405180910390f35b34801561028d57600080fd5b506102a860048036038101906102a39190611064565b610b6d565b005b600081815481106102ba57600080fd5b906000526020600020016000915054906101000a900473ffffffffffffffffffffffffffffffffffffffff1681565b600160003373ffffffffffffffffffffffffffffffffffffffff1673ffffffffffffffffffffffffffffffffffffffff16815260200190815260200160002060009054906101000a900460ff16610375576040517f08c379a000000000000000000000000000000000000000000000000000000000815260040161036c906113c4565b60405180910390fd5b600360405180608001604052808673ffffffffffffffffffffffffffffffffffffffff16815260200185815260200184848080601f016020809104026020016040519081016040528093929190818152602001838380828437600081840152601f19601f82011690508083019250505050505050815260200160001515815250908060018154018082558091505060019003906000526020600020906004020160009091909190915060008201518160000160006101000a81548173ffffffffffffffffffffffffffffffffffffffff021916908373ffffffffffffffffffffffffffffffffffffffff16021790555060208201518160010155604082015181600201908051906020019061048b929190610ea0565b5060608201518160030160006101000a81548160ff021916908315150217905550505060016003805490506104c091906114e2565b7f08324b3d745b914e3abd4ffbfead91e3b78391a98c173202129215ab933adfbe60405160405180910390a250505050565b600160003373ffffffffffffffffffffffffffffffffffffffff1673ffffffffffffffffffffffffffffffffffffffff16815260200190815260200160002060009054906101000a900460ff1661057e576040517f08c379a0000000000000000000000000000000000000000000000000000000008152600401610575906113c4565b60405180910390fd5b8060038054905081106105c6576040517f08c379a00000000000000000000000000000000000000000000000000000000081526004016105bd90611364565b60405180910390fd5b81600381815481106105db576105da61166a565b5b906000526020600020906004020160030160009054906101000a900460ff161561063a576040517f08c379a000000000000000000000000000000000000000000000000000000000815260040161063190611404565b60405180910390fd5b6004600084815260200190815260200160002060003373ffffffffffffffffffffffffffffffffffffffff1673ffffffffffffffffffffffffffffffffffffffff16815260200190815260200160002060009054906101000a900460ff166106d7576040517f08c379a00000000000000000000000000000000000000000000000000000000081526004016106ce906113e4565b60405180910390fd5b60006004600085815260200190815260200160002060003373ffffffffffffffffffffffffffffffffffffffff1673ffffffffffffffffffffffffffffffffffffffff16815260200190815260200160002060006101000a81548160ff021916908315150217905550823373ffffffffffffffffffffffffffffffffffffffff167fec9ab91322523c899ede7830ec9bfc992b5981cdcc27b91162fb23de5791117b60405160405180910390a3505050565b60016020528060005260406000206000915054906101000a900460ff1681565b60046020528160005260406000206020528060005260406000206000915091509054906101000a900460ff1681565b600381815481106107e857600080fd5b90600052602060002090600402016000915090508060000160009054906101000a900473ffffffffffffffffffffffffffffffffffffffff169080600101549080600201805461083790611591565b80601f016020809104026020016040519081016040528092919081815260200182805461086390611591565b80156108b05780601f10610885576101008083540402835291602001916108b0565b820191906000526020600020905b81548152906001019060200180831161089357829003601f168201915b5050505050908060030160009054906101000a900460ff16905084565b600160003373ffffffffffffffffffffffffffffffffffffffff1673ffffffffffffffffffffffffffffffffffffffff16815260200190815260200160002060009054906101000a900460ff16610959576040517f08c379a0000000000000000000000000000000000000000000000000000000008152600401610950906113c4565b60405180910390fd5b8060038054905081106109a1576040517f08c379a000000000000000000000000000000000000000000000000000000000815260040161099890611364565b60405180910390fd5b816004600082815260200190815260200160002060003373ffffffffffffffffffffffffffffffffffffffff1673ffffffffffffffffffffffffffffffffffffffff16815260200190815260200160002060009054906101000a900460ff1615610a40576040517f08c379a0000000000000000000000000000000000000000000000000000000008152600401610a3790611344565b60405180910390fd5b8260038181548110610a5557610a5461166a565b5b906000526020600020906004020160030160009054906101000a900460ff1615610ab4576040517f08c379a0000000000000000000000000000000000000000000000000000000008152600401610aab90611404565b60405180910390fd5b60016004600086815260200190815260200160002060003373ffffffffffffffffffffffffffffffffffffffff1673ffffffffffffffffffffffffffffffffffffffff16815260200190815260200160002060006101000a81548160ff021916908315150217905550833373ffffffffffffffffffffffffffffffffffffffff167f90ec57f18fa7b15c6b8d5e4d1deb90796c74b2ff23d4d0cecad0cb42a96b312860405160405180910390a350505050565b60025481565b806003805490508110610bb5576040517f08c379a0000000000000000000000000000000000000000000000000000000008152600401610bac90611364565b60405180910390fd5b8160038181548110610bca57610bc961166a565b5b906000526020600020906004020160030160009054906101000a900460ff1615610c29576040517f08c379a0000000000000000000000000000000000000000000000000000000008152600401610c2090611404565b60405180910390fd5b600254610c3584610dc6565b1015610c76576040517f08c379a0000000000000000000000000000000000000000000000000000000008152600401610c6d90611384565b60405180910390fd5b600060038481548110610c8c57610c8b61166a565b5b9060005260206000209060040201905060018160030160006101000a81548160ff02191690831515021790555060008160000160009054906101000a900473ffffffffffffffffffffffffffffffffffffffff1673ffffffffffffffffffffffffffffffffffffffff16826001015483600201604051610d0c91906112ab565b60006040518083038185875af1925050503d8060008114610d49576040519150601f19603f3d011682016040523d82523d6000602084013e610d4e565b606091505b5050905080610d92576040517f08c379a0000000000000000000000000000000000000000000000000000000008152600401610d89906113a4565b60405180910390fd5b847fddb556f1d2c1ec821e910b019d3685b229db152a0ecd517ca7e24b8bd713928960405160405180910390a25050505050565b6000805b600080549050811015610e9a57600460008481526020019081526020016000206000808381548110610dff57610dfe61166a565b5b9060005260206000200160009054906101000a900473ffffffffffffffffffffffffffffffffffffffff1673ffffffffffffffffffffffffffffffffffffffff1673ffffffffffffffffffffffffffffffffffffffff16815260200190815260200160002060009054906101000a900460ff1615610e8757600182610e84919061148c565b91505b8080610e92906115c3565b915050610dca565b50919050565b828054610eac90611591565b90600052602060002090601f016020900481019282610ece5760008555610f15565b82601f10610ee757805160ff1916838001178555610f15565b82800160010185558215610f15579182015b82811115610f14578251825591602001919060010190610ef9565b5b509050610f229190610f26565b5090565b5b80821115610f3f576000816000905550600101610f27565b5090565b600081359050610f52816117e2565b92915050565b60008083601f840112610f6e57610f6d61169e565b5b8235905067ffffffffffffffff811115610f8b57610f8a611699565b5b602083019150836001820283011115610fa757610fa66116a3565b5b9250929050565b600081359050610fbd816117f9565b92915050565b600060208284031215610fd957610fd86116ad565b5b6000610fe784828501610f43565b91505092915050565b6000806000806060858703121561100a576110096116ad565b5b600061101887828801610f43565b945050602061102987828801610fae565b935050604085013567ffffffffffffffff81111561104a576110496116a8565b5b61105687828801610f58565b925092505092959194509250565b60006020828403121561107a576110796116ad565b5b600061108884828501610fae565b91505092915050565b600080604083850312156110a8576110a76116ad565b5b60006110b685828601610fae565b92505060206110c785828601610f43565b9150509250929050565b6110da81611516565b82525050565b6110e981611528565b82525050565b60006110fa82611454565b611104818561145f565b935061111481856020860161155e565b61111d816116b2565b840191505092915050565b6000815461113581611591565b61113f8186611470565b9450600182166000811461115a576001811461116b5761119e565b60ff1983168652818601935061119e565b6111748561143f565b60005b8381101561119657815481890152600182019150602081019050611177565b838801955050505b50505092915050565b60006111b4601d8361147b565b91506111bf826116c3565b602082019050919050565b60006111d7601b8361147b565b91506111e2826116ec565b602082019050919050565b60006111fa601f8361147b565b915061120582611715565b602082019050919050565b600061121d60138361147b565b91506112288261173e565b602082019050919050565b6000611240600a8361147b565b915061124b82611767565b602082019050919050565b600061126360198361147b565b915061126e82611790565b602082019050919050565b6000611286601d8361147b565b9150611291826117b9565b602082019050919050565b6112a581611554565b82525050565b60006112b78284611128565b915081905092915050565b60006020820190506112d760008301846110d1565b92915050565b60006080820190506112f260008301876110d1565b6112ff602083018661129c565b818103604083015261131181856110ef565b905061132060608301846110e0565b95945050505050565b600060208201905061133e60008301846110e0565b92915050565b6000602082019050818103600083015261135d816111a7565b9050919050565b6000602082019050818103600083015261137d816111ca565b9050919050565b6000602082019050818103600083015261139d816111ed565b9050919050565b600060208201905081810360008301526113bd81611210565b9050919050565b600060208201905081810360008301526113dd81611233565b9050919050565b600060208201905081810360008301526113fd81611256565b9050919050565b6000602082019050818103600083015261141d81611279565b9050919050565b6000602082019050611439600083018461129c565b92915050565b60008190508160005260206000209050919050565b600081519050919050565b600082825260208201905092915050565b600081905092915050565b600082825260208201905092915050565b600061149782611554565b91506114a283611554565b9250827fffffffffffffffffffffffffffffffffffffffffffffffffffffffffffffffff038211156114d7576114d661160c565b5b828201905092915050565b60006114ed82611554565b91506114f883611554565b92508282101561150b5761150a61160c565b5b828203905092915050565b600061152182611534565b9050919050565b60008115159050919050565b600073ffffffffffffffffffffffffffffffffffffffff82169050919050565b6000819050919050565b60005b8381101561157c578082015181840152602081019050611561565b8381111561158b576000848401525b50505050565b600060028204905060018216806115a957607f821691505b602082108114156115bd576115bc61163b565b5b50919050565b60006115ce82611554565b91507fffffffffffffffffffffffffffffffffffffffffffffffffffffffffffffffff8214156116015761160061160c565b5b600182019050919050565b7f4e487b7100000000000000000000000000000000000000000000000000000000600052601160045260246000fd5b7f4e487b7100000000000000000000000000000000000000000000000000000000600052602260045260246000fd5b7f4e487b7100000000000000000000000000000000000000000000000000000000600052603260045260246000fd5b600080fd5b600080fd5b600080fd5b600080fd5b600080fd5b6000601f19601f8301169050919050565b7f5472616e73616374696f6e20616c726561647920617070726f7665642e000000600082015250565b7f5472616e73616374696f6e20646f6573206e6f742065786973742e0000000000600082015250565b7f417070726f76616c206973206c657373207468616e2072657175697265642e00600082015250565b7f5472616e73616374696f6e206661696c65642100000000000000000000000000600082015250565b7f4e6f74206f776e65722e00000000000000000000000000000000000000000000600082015250565b7f5472616e73616374696f6e206e6f7420617070726f7665642e00000000000000600082015250565b7f5472616e73616374696f6e20616c72656164792065786563757465642e000000600082015250565b6117eb81611516565b81146117f657600080fd5b50565b61180281611554565b811461180d57600080fd5b5056fea2646970667358221220c2b1829807f0dbc77e7bd1b2a0df4952646fcfa1138b68a7a1af8fef3b7f2d0864736f6c63430008060033",
  "linkReferences": {},
  "deployedLinkReferences": {}
}